{
  "_format": "hh-sol-artifact-1",
  "contractName": "DeliberaVoting",
  "sourceName": "contracts/DeliberaVoting.sol",
  "abi": [
    {
      "inputs": [
        {
          "internalType": "address",
          "name": "_teeAddress",
          "type": "address"
        }
      ],
      "stateMutability": "nonpayable",
      "type": "constructor"
    },
    {
      "inputs": [
        {
          "internalType": "bytes32",
          "name": "handle",
          "type": "bytes32"
        },
        {
          "internalType": "address",
          "name": "sender",
          "type": "address"
        }
      ],
      "name": "SenderNotAllowedToUseHandle",
      "type": "error"
    },
    {
      "inputs": [],
      "name": "ZamaProtocolUnsupported",
      "type": "error"
    },
    {
      "anonymous": false,
      "inputs": [
        {
          "indexed": true,
          "internalType": "uint256",
          "name": "proposalId",
          "type": "uint256"
        },
        {
          "indexed": false,
          "internalType": "string",
          "name": "description",
          "type": "string"
        },
        {
          "indexed": false,
          "internalType": "uint256",
          "name": "deadline",
          "type": "uint256"
        }
      ],
      "name": "ProposalCreated",
      "type": "event"
    },
    {
      "anonymous": false,
      "inputs": [
        {
          "indexed": true,
          "internalType": "uint256",
          "name": "proposalId",
          "type": "uint256"
        }
      ],
      "name": "ProposalFinalized",
      "type": "event"
    },
    {
      "anonymous": false,
      "inputs": [
        {
          "indexed": true,
          "internalType": "uint256",
          "name": "proposalId",
          "type": "uint256"
        },
        {
          "indexed": false,
          "internalType": "uint32",
          "name": "approved",
          "type": "uint32"
        },
        {
          "indexed": false,
          "internalType": "uint32",
          "name": "rejected",
          "type": "uint32"
        },
        {
          "indexed": false,
          "internalType": "string",
          "name": "decision",
          "type": "string"
        }
      ],
      "name": "ResultPublished",
      "type": "event"
    },
    {
      "anonymous": false,
      "inputs": [
        {
          "indexed": true,
          "internalType": "uint256",
          "name": "proposalId",
          "type": "uint256"
        },
        {
          "indexed": true,
          "internalType": "address",
          "name": "voter",
          "type": "address"
        }
      ],
      "name": "VoteCast",
      "type": "event"
    },
    {
      "inputs": [
        {
          "internalType": "uint256",
          "name": "proposalId",
          "type": "uint256"
        },
        {
          "internalType": "externalEuint32",
          "name": "encryptedVote",
          "type": "bytes32"
        },
        {
          "internalType": "bytes",
          "name": "inputProof",
          "type": "bytes"
        }
      ],
      "name": "castVote",
      "outputs": [],
      "stateMutability": "nonpayable",
      "type": "function"
    },
    {
      "inputs": [],
      "name": "confidentialProtocolId",
      "outputs": [
        {
          "internalType": "uint256",
          "name": "",
          "type": "uint256"
        }
      ],
      "stateMutability": "view",
      "type": "function"
    },
    {
      "inputs": [
        {
          "internalType": "string",
          "name": "description",
          "type": "string"
        },
        {
          "internalType": "uint256",
          "name": "duration",
          "type": "uint256"
        }
      ],
      "name": "createProposal",
      "outputs": [
        {
          "internalType": "uint256",
          "name": "proposalId",
          "type": "uint256"
        }
      ],
      "stateMutability": "nonpayable",
      "type": "function"
    },
    {
      "inputs": [
        {
          "internalType": "uint256",
          "name": "proposalId",
          "type": "uint256"
        }
      ],
      "name": "finalize",
      "outputs": [],
      "stateMutability": "nonpayable",
      "type": "function"
    },
    {
      "inputs": [
        {
          "internalType": "uint256",
          "name": "proposalId",
          "type": "uint256"
        }
      ],
      "name": "getEncryptedApproved",
      "outputs": [
        {
          "internalType": "euint32",
          "name": "",
          "type": "bytes32"
        }
      ],
      "stateMutability": "view",
      "type": "function"
    },
    {
      "inputs": [
        {
          "internalType": "uint256",
          "name": "proposalId",
          "type": "uint256"
        }
      ],
      "name": "getEncryptedRejected",
      "outputs": [
        {
          "internalType": "euint32",
          "name": "",
          "type": "bytes32"
        }
      ],
      "stateMutability": "view",
      "type": "function"
    },
    {
      "inputs": [
        {
          "internalType": "uint256",
          "name": "proposalId",
          "type": "uint256"
        }
      ],
      "name": "getProposal",
      "outputs": [
        {
          "internalType": "string",
          "name": "description",
          "type": "string"
        },
        {
          "internalType": "uint256",
          "name": "deadline",
          "type": "uint256"
        },
        {
          "internalType": "uint32",
          "name": "voteCount",
          "type": "uint32"
        },
        {
          "internalType": "bool",
          "name": "finalized",
          "type": "bool"
        },
        {
          "internalType": "uint32",
          "name": "resultApproved",
          "type": "uint32"
        },
        {
          "internalType": "uint32",
          "name": "resultRejected",
          "type": "uint32"
        }
      ],
      "stateMutability": "view",
      "type": "function"
    },
    {
      "inputs": [
        {
          "internalType": "uint256",
          "name": "proposalId",
          "type": "uint256"
        },
        {
          "internalType": "address",
          "name": "voter",
          "type": "address"
        }
      ],
      "name": "hasVoted",
      "outputs": [
        {
          "internalType": "bool",
          "name": "",
          "type": "bool"
        }
      ],
      "stateMutability": "view",
      "type": "function"
    },
    {
      "inputs": [],
      "name": "owner",
      "outputs": [
        {
          "internalType": "address",
          "name": "",
          "type": "address"
        }
      ],
      "stateMutability": "view",
      "type": "function"
    },
    {
      "inputs": [],
      "name": "proposalCount",
      "outputs": [
        {
          "internalType": "uint256",
          "name": "",
          "type": "uint256"
        }
      ],
      "stateMutability": "view",
      "type": "function"
    },
    {
      "inputs": [
        {
          "internalType": "uint256",
          "name": "proposalId",
          "type": "uint256"
        },
        {
          "internalType": "uint32",
          "name": "approved",
          "type": "uint32"
        },
        {
          "internalType": "uint32",
          "name": "rejected",
          "type": "uint32"
        }
      ],
      "name": "publishResult",
      "outputs": [],
      "stateMutability": "nonpayable",
      "type": "function"
    },
    {
      "inputs": [
        {
          "internalType": "address",
          "name": "_teeAddress",
          "type": "address"
        }
      ],
      "name": "setTeeAddress",
      "outputs": [],
      "stateMutability": "nonpayable",
      "type": "function"
    },
    {
      "inputs": [],
      "name": "teeAddress",
      "outputs": [
        {
          "internalType": "address",
          "name": "",
          "type": "address"
        }
      ],
      "stateMutability": "view",
      "type": "function"
    }
  ],
  "bytecode": "0x608060405234801561000f575f5ffd5b5060405161197b38038061197b83398101604081905261002e916102c3565b6100e2610039610114565b80517f9e7b61f58c47dc699ac88507c4f5bb9f121c03808c5676a8078fe583e464970080546001600160a01b03199081166001600160a01b039384161790915560208301517f9e7b61f58c47dc699ac88507c4f5bb9f121c03808c5676a8078fe583e46497018054831691841691909117905560408301517f9e7b61f58c47dc699ac88507c4f5bb9f121c03808c5676a8078fe583e46497028054909216921691909117905550565b5f8054336001600160a01b031991821617909155600180549091166001600160a01b03929092169190911790556102f0565b604080516060810182525f8082526020820181905291810191909152466001036101ad575060408051606080820183525f8083526020808401829052928401528251908101835273ca2e8f1f656cd25c01f05d0b243ab1ecd4a8ffb6815273d82385dada1ae3e969447f20a3164f6213100e75918101919091527377627828a55156b04ac0dc0eb30467f1a552bb039181019190915290565b4662aa36a70361022c575060408051606080820183525f8083526020808401829052928401528251908101835273f0ffdc93b7e186bc2f8cb3daa75d86d1930a433d81527392c920834ec8941d2c77d188936e1f7a6f49c1279181019190915273be0e383937d564d7ff0bc3b46c51f0bf8d5c311a9181019190915290565b46617a69036102aa575060408051606080820183525f808352602080840182905292840152825190810183527350157cffd6bbfa2dece204a89ec419c23ef5755d815273e3a9105a3a932253a70f126eb1e3b589c643dd249181019190915273be0e383937d564d7ff0bc3b46c51f0bf8d5c311a9181019190915290565b6040516373cac13b60e01b815260040160405180910390fd5b5f602082840312156102d3575f5ffd5b81516001600160a01b03811681146102e9575f5ffd5b9392505050565b61167e806102fd5f395ff3fe608060405234801561000f575f5ffd5b50600436106100da575f3560e01c80638589c7a5116100885780638da5cb5b116100635780638da5cb5b146101da578063c7f758a8146101ec578063da35c66414610211578063e43a91a41461021a575f5ffd5b80638589c7a51461019d57806385e0a324146101b05780638927b030146101d2575f5ffd5b806346f31cfd116100b857806346f31cfd1461013c5780635425d8cd1461015f57806378b9e62014610172575f5ffd5b806305261aea146100de57806335facf78146100f35780634385963214610119575b5f5ffd5b6100f16100ec3660046111a1565b61022d565b005b6101066101013660046111fd565b6103ca565b6040519081526020015b60405180910390f35b61012c610127366004611260565b610497565b6040519015158152602001610110565b61010661014a3660046111a1565b5f908152600360208190526040909120015490565b6100f161016d36600461129d565b6104c3565b600154610185906001600160a01b031681565b6040516001600160a01b039091168152602001610110565b6100f16101ab3660046112d6565b610703565b6101066101be3660046111a1565b5f9081526003602052604090206002015490565b610106610a18565b5f54610185906001600160a01b031681565b6101ff6101fa3660046111a1565b610a26565b60405161011096959493929190611353565b61010660025481565b6100f1610228366004611399565b610b22565b6001546001600160a01b031633146102775760405162461bcd60e51b81526020600482015260086024820152674f6e6c792054454560c01b60448201526064015b60405180910390fd5b5f81815260036020526040902060018101546102d55760405162461bcd60e51b815260206004820152601760248201527f50726f706f73616c20646f6573206e6f74206578697374000000000000000000604482015260640161026e565b806001015442116103285760405162461bcd60e51b815260206004820152601160248201527f566f74696e67207374696c6c206f70656e000000000000000000000000000000604482015260640161026e565b6004810154640100000000900460ff16156103855760405162461bcd60e51b815260206004820152601160248201527f416c72656164792066696e616c697a6564000000000000000000000000000000604482015260640161026e565b60048101805464ff00000000191664010000000017905560405182907fe1f88450adc0106842577be8461a06e8d81ccd807a16165d60b56cca3197c5ba905f90a25050565b5f80546001600160a01b031633146104115760405162461bcd60e51b815260206004820152600a60248201526927b7363c9037bbb732b960b11b604482015260640161026e565b60028054905f610420836113c6565b909155505f81815260036020526040902090915080610440858783611476565b5061044b8342611530565b6001820181905560405183917ff5dc0da9afa6d080780a49fd8c680f03d2ddf3c067cd6d0c85360c096644d2d391610487918991899190611543565b60405180910390a2509392505050565b5f8281526004602090815260408083206001600160a01b038516845290915290205460ff165b92915050565b6001546001600160a01b031633146105085760405162461bcd60e51b81526020600482015260086024820152674f6e6c792054454560c01b604482015260640161026e565b5f8381526003602052604090206004810154640100000000900460ff166105715760405162461bcd60e51b815260206004820152600d60248201527f4e6f742066696e616c697a656400000000000000000000000000000000000000604482015260640161026e565b600481015465010000000000900463ffffffff161580156105a7575060048101546901000000000000000000900463ffffffff16155b6105f35760405162461bcd60e51b815260206004820152601860248201527f526573756c7420616c7265616479207075626c69736865640000000000000000604482015260640161026e565b6004810180546cffffffffffffffff000000000019166501000000000063ffffffff8681169182026cffffffff0000000000000000001916929092176901000000000000000000928616928302179092555f911015610687576040518060400160405280600881526020017f52656a65637465640000000000000000000000000000000000000000000000008152506106be565b6040518060400160405280600881526020017f417070726f7665640000000000000000000000000000000000000000000000008152505b9050847f8613fc0eb7f72d15cdd8d66d4c35f7e4939178ae4afb65f471ee4b5cc9eef3038585846040516106f49392919061157a565b60405180910390a25050505050565b5f84815260036020526040902060018101546107615760405162461bcd60e51b815260206004820152601760248201527f50726f706f73616c20646f6573206e6f74206578697374000000000000000000604482015260640161026e565b80600101544211156107b55760405162461bcd60e51b815260206004820152600d60248201527f566f74696e6720636c6f73656400000000000000000000000000000000000000604482015260640161026e565b5f85815260046020908152604080832033845290915290205460ff161561081e5760405162461bcd60e51b815260206004820152600d60248201527f416c726561647920766f74656400000000000000000000000000000000000000604482015260640161026e565b6004810154640100000000900460ff161561087b5760405162461bcd60e51b815260206004820152601160248201527f416c72656164792066696e616c697a6564000000000000000000000000000000604482015260640161026e565b5f8581526004602090815260408083203384528252808320805460ff191660011790558051601f86018390048302810183019091528481526108d99187919087908790819084018382808284375f92019190915250610ba292505050565b90506108e9826002015482610c08565b600283018190556108f990610c3d565b5060028201545f5461091491906001600160a01b0316610c5d565b50600282015460015461093091906001600160a01b0316610c5d565b505f61093c6001610c80565b90505f6109498284610c92565b9050610959846003015482610c08565b6003850181905561096990610c3d565b5060038401545f5461098491906001600160a01b0316610c5d565b5060038401546001546109a091906001600160a01b0316610c5d565b5060048401805463ffffffff16905f6109b8836115ad565b91906101000a81548163ffffffff021916908363ffffffff16021790555050336001600160a01b0316887ff1003b73c437642c0460aee9cd9628b0b8c447b66e6c7c905531b9c644214a1160405160405180910390a35050505050505050565b5f610a21610cc0565b905090565b5f818152600360205260408120600181015460048201548254606094938493849384938493928392909163ffffffff8083169260ff640100000000820416926501000000000082048316926901000000000000000000909204909116908690610a8e906113f2565b80601f0160208091040260200160405190810160405280929190818152602001828054610aba906113f2565b8015610b055780601f10610adc57610100808354040283529160200191610b05565b820191905f5260205f20905b815481529060010190602001808311610ae857829003601f168201915b505050505095509650965096509650965096505091939550919395565b5f546001600160a01b03163314610b685760405162461bcd60e51b815260206004820152600a60248201526927b7363c9037bbb732b960b11b604482015260640161026e565b600180547fffffffffffffffffffffffff0000000000000000000000000000000000000000166001600160a01b0392909216919091179055565b5f81515f14610bbe57610bb783836004610cf4565b90506104bd565b825f819003610bd857610bd05f610c80565b9150506104bd565b610be28133610e14565b610bb757604051630276b5d960e01b81526004810182905233602482015260440161026e565b5f82610c1a57610c175f610c80565b92505b81610c2b57610c285f610c80565b91505b610c3683835f610eb3565b9392505050565b5f81610c4f57610c4c5f610c80565b91505b610c598230610fae565b5090565b5f82610c6f57610c6c5f610c80565b92505b610c798383610fae565b5090919050565b5f6104bd8263ffffffff166004611037565b5f82610ca457610ca15f610c80565b92505b81610cb557610cb25f610c80565b91505b610c3683835f6110ec565b5f46600103610ccf5750600190565b4662aa36a703610ce0575061271190565b46617a6903610cef57505f1990565b505f90565b7f9e7b61f58c47dc699ac88507c4f5bb9f121c03808c5676a8078fe583e46497015460405163045fc19560e11b81525f917f9e7b61f58c47dc699ac88507c4f5bb9f121c03808c5676a8078fe583e4649700916001600160a01b03909116906308bf832a90610d6d9088903390899089906004016115f1565b6020604051808303815f875af1158015610d89573d5f5f3e3d5ffd5b505050506040513d601f19601f82011682018060405250810190610dad9190611627565b8154604051630f8e573b60e21b8152600481018390523360248201529193506001600160a01b031690633e395cec906044015f604051808303815f87803b158015610df6575f5ffd5b505af1158015610e08573d5f5f3e3d5ffd5b50505050509392505050565b5f807f9e7b61f58c47dc699ac88507c4f5bb9f121c03808c5676a8078fe583e464970080546040516382027b6d60e01b8152600481018790526001600160a01b0386811660248301529293509116906382027b6d90604401602060405180830381865afa158015610e87573d5f5f3e3d5ffd5b505050506040513d601f19601f82011682018060405250810190610eab919061163e565b949350505050565b5f5f8215610ec65750600160f81b610ec9565b505f5b7f9e7b61f58c47dc699ac88507c4f5bb9f121c03808c5676a8078fe583e46497015460405163022f65e760e31b815260048101879052602481018690527fff00000000000000000000000000000000000000000000000000000000000000831660448201527f9e7b61f58c47dc699ac88507c4f5bb9f121c03808c5676a8078fe583e4649700916001600160a01b03169063117b2f38906064015b6020604051808303815f875af1158015610f80573d5f5f3e3d5ffd5b505050506040513d601f19601f82011682018060405250810190610fa49190611627565b9695505050505050565b5f7f9e7b61f58c47dc699ac88507c4f5bb9f121c03808c5676a8078fe583e46497008054604051635ca4b5b160e11b8152600481018690526001600160a01b03858116602483015292935091169063b9496b62906044015f604051808303815f87803b15801561101c575f5ffd5b505af115801561102e573d5f5f3e3d5ffd5b50505050505050565b7f9e7b61f58c47dc699ac88507c4f5bb9f121c03808c5676a8078fe583e464970154604051639cd07acb60e01b81525f917f9e7b61f58c47dc699ac88507c4f5bb9f121c03808c5676a8078fe583e4649700916001600160a01b0390911690639cd07acb906110ac908790879060040161165d565b6020604051808303815f875af11580156110c8573d5f5f3e3d5ffd5b505050506040513d601f19601f82011682018060405250810190610eab9190611627565b5f5f82156110ff5750600160f81b611102565b505f5b7f9e7b61f58c47dc699ac88507c4f5bb9f121c03808c5676a8078fe583e4649701546040516303056db360e31b815260048101879052602481018690527fff00000000000000000000000000000000000000000000000000000000000000831660448201527f9e7b61f58c47dc699ac88507c4f5bb9f121c03808c5676a8078fe583e4649700916001600160a01b03169063182b6d9890606401610f64565b5f602082840312156111b1575f5ffd5b5035919050565b5f5f83601f8401126111c8575f5ffd5b50813567ffffffffffffffff8111156111df575f5ffd5b6020830191508360208285010111156111f6575f5ffd5b9250929050565b5f5f5f6040848603121561120f575f5ffd5b833567ffffffffffffffff811115611225575f5ffd5b611231868287016111b8565b909790965060209590950135949350505050565b80356001600160a01b038116811461125b575f5ffd5b919050565b5f5f60408385031215611271575f5ffd5b8235915061128160208401611245565b90509250929050565b803563ffffffff8116811461125b575f5ffd5b5f5f5f606084860312156112af575f5ffd5b833592506112bf6020850161128a565b91506112cd6040850161128a565b90509250925092565b5f5f5f5f606085870312156112e9575f5ffd5b8435935060208501359250604085013567ffffffffffffffff81111561130d575f5ffd5b611319878288016111b8565b95989497509550505050565b5f81518084528060208401602086015e5f602082860101526020601f19601f83011685010191505092915050565b60c081525f61136560c0830189611325565b60208301979097525063ffffffff94851660408201529215156060840152908316608083015290911660a090910152919050565b5f602082840312156113a9575f5ffd5b610c3682611245565b634e487b7160e01b5f52601160045260245ffd5b5f600182016113d7576113d76113b2565b5060010190565b634e487b7160e01b5f52604160045260245ffd5b600181811c9082168061140657607f821691505b60208210810361142457634e487b7160e01b5f52602260045260245ffd5b50919050565b601f82111561147157805f5260205f20601f840160051c8101602085101561144f5750805b601f840160051c820191505b8181101561146e575f815560010161145b565b50505b505050565b67ffffffffffffffff83111561148e5761148e6113de565b6114a28361149c83546113f2565b8361142a565b5f601f8411600181146114d3575f85156114bc5750838201355b5f19600387901b1c1916600186901b17835561146e565b5f83815260208120601f198716915b8281101561150257868501358255602094850194600190920191016114e2565b508682101561151e575f1960f88860031b161c19848701351681555b505060018560011b0183555050505050565b808201808211156104bd576104bd6113b2565b60408152826040820152828460608301375f606084830101525f6060601f19601f8601168301019050826020830152949350505050565b63ffffffff8416815263ffffffff83166020820152606060408201525f6115a46060830184611325565b95945050505050565b5f63ffffffff821663ffffffff81036115c8576115c86113b2565b60010192915050565b605481106115ed57634e487b7160e01b5f52602160045260245ffd5b9052565b8481526001600160a01b0384166020820152608060408201525f6116186080830185611325565b90506115a460608301846115d1565b5f60208284031215611637575f5ffd5b5051919050565b5f6020828403121561164e575f5ffd5b81518015158114610c36575f5ffd5b82815260408101610c3660208301846115d156fea164736f6c634300081b000a",
  "linkReferences": {},
  "deployedLinkReferences": {}
}